:020000040800F2
:10000000A0040020450100087F13000861120008C9
:100010007D1300080B040008D9160008000000003A
:10002000000000000000000000000000971500081C
:100030000D04000800000000811300089915000855
:100040005F0100085F0100085F0100085F01000810
:100050005F0100085F0100085F0100085F01000800
:100060005F0100085F0100085F0100085F010008F0
:100070005F0100085F0100085F0100085F010008E0
:100080005F0100085F0100085F0100085F010008D0
:100090005F0100085F0100085F0100085F010008C0
:1000A0005F0100085F0100085F0100085F010008B0
:1000B0005F0100085F0100085F0100085F010008A0
:1000C0005F0100085F0100085F0100085F01000890
:1000D0005F0100085F0100085F0100085F01000880
:1000E0005F0100085F0100085F0100085F01000870
:1000F0005F0100085F0100085F0100085F01000860
:100100005F0100085F0100085F0100085F0100084F
:100110005F0100085F0100085F0100085F0100083F
:100120005F0100085F0100085F0100085F0100082F
:10013000DFF80CD000F048F900480047455E0008A1
:10014000A00400200648804706480047FEE7FEE777
:10015000FEE7FEE7FEE7FEE7FEE7FEE7FEE7FEE777
:100160001D16000831010008202A04DB203A21FA7C
:1001700002F00021704721FA02F3D040C2F12002C0
:100180009140084319467047D2B201E000F8012BB4
:10019000491EFBD270470022F6E710B513460A4607
:1001A00004461946FFF7F0FF204610BD2DE9FE4F2B
:1001B00081EA030404F0004421F0004100944FF070
:1001C000000B23F0004350EA01045ED052EA03041E
:1001D0005BD0C3F30A54C1F30A552C44A4F2F334A0
:1001E0000194A0FB0254C1F3130141F48011C3F345
:1001F000130343F4801301FB024400FB034E840A03
:10020000970A44EA815447EA8357A4FB076802959A
:100210008D0A05FB07854FEA932C04FB0C54270538
:10022000029D4FEA065847EA1637B5EB08056EEB14
:10023000070C870E920E47EA811742EA8312A7FB4A
:100240000201B6EB0B0164EB00042B0D43EA0C3307
:100250005E1844EB1C50DA465146E7FB0201C5F339
:1002600013044FEA0B3343EA14534FEA0432019C60
:1002700043EA0603A4F10C040294009CCDE900B407
:1002800000F053F803B0BDE8F08F00200146F9E715
:100290000EB540F2334102910021CDE900110A462A
:1002A0000B4600F042F803B000BDC1F30A5210B58E
:1002B000C1F3130140F2FF3341F480119A4201DA95
:1002C000002010BD40F233439A42A2F2334203DCD5
:1002D0005242FFF749FF10BD904010BD30B5041EDB
:1002E00071F1000404DB4FF00044404264EB010173
:1002F000141E73F1000405DB1C464FF0004352420C
:1003000063EB04038B4208BF824230BD10B5141E5C
:1003100073F1000408DA401C41F1000192185B41BE
:100320001A4301D120F0010010BD2DE9F04D924695
:100330009B4611B1B1FA81F202E0B0FA80F22032AC
:10034000904600F053F804460F4640EA0A0041EA9E
:100350000B0153465A46084313D0114653EA010095
:1003600019D0C8F140025046FFF7FEFE05460E4682
:1003700050465946424600F039F8084305D001205E
:1003800004E020463946BDE8F08D0020054346EAEA
:10039000E0762C4337430A986305E40AA0EB080093
:1003A0000022FD0A44EA47540A3002D500200146E3
:1003B000E9E7010510196941DDE9084500196941BE
:1003C000BDE8F04DA2E70000064C074D06E0E068EE
:1003D00040F0010394E8070098471034AC42F6D38C
:1003E000FFF7AAFE4099000860990008202A04DB64
:1003F000203A00FA02F1002070479140C2F1200338
:1004000020FA03F3194390407047FEE7704772B635
:10041000FEE700002DE9F84FDFF8C8910024A9F1AC
:10042000040B23460F2709F1040AABF1040ED1E0B7
:100430000125A54006EA0502AA4276D1DFF8A8C147
:100440004E68A6EB0C0866452BD00DDC032E34D08D
:1004500005DC36B3012E19D0022E2FD11BE0112E50
:1004600016D0122E2AD119E0B8F5881F19D006DC53
:10047000B8F5803F15D0B8F5801F1FD111E0B8F551
:10048000001F0ED0B8F5041F18D10AE0CB6815E0A4
:10049000CB681B1D12E0CB6808330FE0CB680C3330
:1004A0000CE08B682BB1012B4FF0080303D04561A2
:1004B00004E0042302E0056100E00023FF2A01D8E4
:1004C000064601E000F104064FEA840501D9A5F1D2
:1004D0002005D6F8008007FA05FC28EA0C0803FA84
:1004E00005F548EA0508C6F800804D68ED0070D5AE
:1004F0003E4DAE6946F00106AE61AD6924F00306DB
:1005000005F0010500953A4D06EB050CDCF80850A6
:10051000A607360F07FA06F825EA0805DFF8D480A3
:10052000404503D14FF0000825E052E0DFF8C880D5
:10053000404502D14FF001081DE0DFF8C080404582
:1005400002D14FF0020816E0DFF8B480404502D136
:100550004FF003080FE0DFF8AC80404502D14FF0C8
:10056000040808E0DFF8A080404502D14FF00508FC
:1005700001E04FF0060808FA06F848EA0508CCF84A
:1005800008804D68D9F80060ED024D4601D516434C
:1005900000E096432E604D68DAF80060AD025546E3
:1005A00001D5164300E096432E604D68DBF80060ED
:1005B000AD035D4601D5164300E096432E604D68BD
:1005C000DEF80060ED03754601D5164300E0964362
:1005D0002E60641C0A681646E2407FF429AFBDE82D
:1005E000F88F0000080401400000111000100240C4
:1005F0000000014000080140000C014000100140D3
:100600000014014000180140001C014080680840AF
:1006100000D0012070470AB1016170470904FBE76F
:10062000014880687047000010000020024881687F
:10063000027811448160704710000020074810B50F
:10064000016841F010010160032000F067F80F20FD
:1006500000F006F800F024F8002010BD0020024051
:1006600070B50D4D04464FF47A712878B1FBF0F067
:100670000A490968B1FBF0F000F073FD48B9102C8D
:1006800007D200222146501E00F028F800206C609E
:1006900070BD012070BD0000100000201C00002073
:1006A0000C4808B5816941F001018161816901F05F
:1006B00001010091C16941F08051C161C06900F040
:1006C000805000900448416821F0E06141F0806171
:1006D000416008BD0010024000000140F0B40E4B24
:1006E0001B680C46C3F30223C3F10705042D00D990
:1006F0000425191D072901D2002300E0DB1E012675
:1007000006FA05F1491E214099409E40761E16408A
:100710003143F0BC00F0EABF0CED00E0064900F008
:10072000070208684FF6FF03184040EA0220034A18
:1007300010430860704700000CED00E00000FA056F
:10074000014901200862704700000E4210B50146C1
:100750000020284C04292FD00BDC012930D002299D
:1007600029D100F06BF96168C1F38131491C49005E
:100770001FE0082920D010291DD161682268D2010C
:1007800019D51D48C1F38342C903805C0AD561684D
:10079000194AC1F34041921E515C184AB2FBF1F173
:1007A000484301E0164948436168490203D44000C8
:1007B0000321B0FBF1F010BDBDE8104000F04EB9D0
:1007C000226AC2F30121012903D1920701D5C8038E
:1007D00010BD022905D1626A920702D549F6404050
:1007E00010BD0329FCD121688903F9D54FF22440BB
:1007F00010BD000000100240C060000800127A0026
:1008000000093D002DE9F84305460078354CC00746
:1008100054D0E0690026C00008D4E06940F0805060
:10082000E061E069012600F0805000902E480168E8
:10083000C90512D40168804641F480710160FFF758
:10084000EFFE074605E000BFFFF7EAFEC01B642885
:1008500023D8D8F80000C005F6D5206A10F44070FF
:1008600021D0A98801F4407181421CD0206A1F491F
:10087000012220F440700A6000220A602062C00752
:1008800011D0FFF7CDFE074641F2883808E000BFDF
:10089000FFF7C6FEC11B414502D90320BDE8F8831E
:1008A000206A8007F4D5206A696820F44070084304
:1008B00020621EB1E06920F08050E0612878800756
:1008C00005D56068A96820F4404008436060287836
:1008D000C00605D56068696920F48000084360603F
:1008E0000020DBE70010024000700040400442425C
:1008F0002DE9F0470F46050061D0434E306800F007
:100900000700B84209D2306820F007003843306051
:10091000306800F00700B84251D128683B4C81078D
:1009200012D5400703D5606840F4E0606060287825
:10093000000703D5606840F4605060606068A96893
:1009400020F0F000084360602878C00728D068686D
:10095000012810D02168022810D0890700292EDA3A
:10096000616821F0030101436160FFF759FE804691
:1009700041F288390DE021688903EFE78901EDE74D
:10098000FFF74EFEA0EB0801494502D90320BDE860
:10099000F0876068696800F00C00B0EB810FEFD160
:1009A000306800F00700B8420BD9306820F007002B
:1009B00038433060306800F00700B84201D00120B1
:1009C000E5E72878400705D56068E96820F4E0602D
:1009D000084360602878000706D56068296920F41C
:1009E000605040EAC100606000F038F86168084A71
:1009F000C1F30311515CC84006490860064800680D
:100A0000FFF72EFE0020C2E7002002400010024047
:100A1000D06000081C000020140000200448054994
:100A200000684968044AC1F30221515CC84070471C
:100A30001C00002000100240E06000080448054946
:100A400000684968044AC1F3C221515CC84070473C
:100A50001C00002000100240E06000080E4A5168AF
:100A60000E4801F00C03042B11D0082B0FD10C48B9
:100A7000C1F38343C903C05C0AD55168084AC1F376
:100A80004041921E515C054A5043B0FBF1F0704763
:100A900004494843704700000010024000127A00E9
:100AA000AE60000800093D002DE9F84F040070D049
:100AB0002078C04DC00749D06868C0F38100012884
:100AC00007D06868C0F38100022809D16868C003B4
:100AD00006D52868800339D560680028E7D035E05E
:100AE0006068B0F5803F0BD010B1B0F5A02F11D0E9
:100AF000286820F480302860286820F4802002E0F4
:100B0000286840F480302860606890B1FFF788FD65
:100B100006460AE0286840F480202860F0E700BF1D
:100B2000FFF77EFD801B642873D828688003F7D503
:100B30000CE0FFF775FD064605E000BFFFF770FD0E
:100B4000801B6428F0D828688003F7D420789A4E58
:100B500080074FF001094FF0000839D5686810F0A0
:100B60000C0F07D06868C0F38100022809D16868BB
:100B7000C00306D42868800714D52069012808D14D
:100B800010E02069B0B1C6F80090FFF749FD0746B4
:100B900005E00AE1FFF744FDC01B0228C4D828681D
:100BA0008007F7D52868616920F0F80040EAC100A5
:100BB00028600DE0C6F80080FFF732FD074604E02C
:100BC000FFF72EFDC01B022823D828688007F7D422
:100BD000207800072CD57948A169D9B1C0F80090D8
:100BE000FFF71EFD074604E0FFF71AFDC01B0228B1
:100BF0000FD8686A8007F7D571484FF4FA5100683A
:100C0000B0FBF1F0009000BF0098411E0091FAD2B5
:100C10000EE080E0C0F80080FFF702FD074604E028
:100C2000FFF7FEFCC01B022875D8686A8007F7D45E
:100C30002078400760D5E8690027C00008D4E8693B
:100C400040F08050E861E869012700F08050009092
:100C50005C480168C90513D40168834641F480717A
:100C60000160FFF7DDFC824606E000BFFFF7D8FC1D
:100C7000A0EB0A0064284ED8DBF80000C005F5D5CB
:100C8000E06801280AD008B1052813D0286A20F0AE
:100C900001002862286A20F0040002E0286A40F07F
:100CA00001002862E06841F2883B98B1FFF7B8FC88
:100CB00082460BE0286A40F004002862EEE700BF9D
:100CC000FFF7AEFCA0EB0A0159455AD8286A800705
:100CD000F6D50CE0FFF7A4FC824605E0FFF7A0FC88
:100CE000A0EB0A0159454CD8286A8007F6D41FB1F9
:100CF000E86920F08050E861E06988B36968C1F371
:100D00008101022944D00228C6F8608004D0FFF790
:100D100087FC044638E034E0FFF782FC074604E035
:100D2000FFF77EFCC01B02282BD828688001F7D46F
:100D3000206AB0F5803F05D16868A16820F40030D2
:100D400008436860D4E908010843696821F4741114
:100D500008436860C6F86090FFF762FC044606E04E
:100D600025E000BFFFF75CFC001B022809D82868BB
:100D70008001F7D51BE000BFFFF752FC001B0228E3
:100D800002D90320BDE8F88F28688001F4D40EE072
:100D90000128F7D06868226A00F48031914204D1BA
:100DA000616A00F47010884201D00120EAE7002057
:100DB000E8E7000000100240000042428004424286
:100DC0001C00002000700040F8B505004FF0000046
:100DD00016460C46009006D02CB1002269462846E3
:100DE00000F019F808B10120F8BD287B2070E87BDD
:100DF000E070697B6170A97BA17056B100F0CAFAFE
:100E0000E070607800F0C6FA6070A07800F0C2FA76
:100E1000A0700020F8BD2DE9F04791460C465FEA2E
:100E200000084AD084B3D8F800004068400744D492
:100E3000404600F04DFB4FF461620546B0FBF2F115
:100E4000B0FBF2F302FB13503C23B0FBF3F0B5FB15
:100E5000F2F6607002FB1650B0FBF3F203FB1200D7
:100E6000A070182931D31820B1FBF0F7B1FBF0F2D4
:100E700000FB12102070404600F023FB411C04D000
:100E8000A84202D9461B02E017E04FF0FF36A7EB5D
:100E9000071000EB4000C0EB001005EBC015294621
:100EA000404600F064FB40B9701C01D0711900E0AD
:100EB0003146404600F047FB10B10120BDE8F08705
:100EC0003946404600F071FA00E02170B9F1000F98
:100ED0000BD0207800F05EFA2070607800F05AFAAB
:100EE0006070A07800F056FAA0700020E6E70000DD
:100EF00070B5040003D0607C002610B105E001202D
:100F000070BD2674204600F03DF802206074204633
:100F100000F00AF9042550BB204600F09DFA30BBD2
:100F20002068416821F007014160A06820B11448A1
:100F3000016821F0010101601148001F0168A268E9
:100F400021F46071114301606068411C04D10120EB
:100F5000FFF7FCFB58B1401E2268C0F303419160CB
:100F6000216880B2C860204600F090FA08B165742C
:100F7000C5E7E67301206073A0736074002070BD44
:100F8000306C004008B50068084988420DD1FFF771
:100F9000D7FB0748C16941F00061C161C0690549DB
:100FA00000F0006000900120086008BD00280040AB
:100FB000001002403C0442422DE9F0410D4604007D
:100FC0003BD0C5B3207C01283AD04FF0010884F80B
:100FD000108002206074E87872B300F0D2F9E073F8
:100FE000687800F0CEF96073A87800F0CAF9A073B1
:100FF000C2B2617BE07B00F07BFA20732870204650
:1010000000F066FA4FF46161B0FBF1F10025182998
:101010002DD91822B1FBF2F1A1EB011101EB410135
:10102000C1EB011100EBC1163146204600F09FFADA
:101030000427C8B90BE000E004E00120BDE8F0811E
:101040000220FBE7E07368786073A878CFE720465A
:1010500000F037FA411C0AD0B04208D206490144D8
:10106000204600F070FA10B167742574E5E784F843
:10107000118025740020E1E7805101002DE9F04145
:101080000D46040024D01DB3207C012823D04FF04E
:10109000010884F81080022060742878EAB100F01A
:1010A00070F94FF4616100FB01F6687800F069F9AE
:1010B000C0EB001006EB8006A87800F062F9351846
:1010C0002946204600F053FA0026042710BB0FE003
:1010D0000120BDE8F0810220FBE74FF46161484345
:1010E0006978C1EB011100EB8100A9784518E7E7A9
:1010F0002068416821F005014160204600F0E1F9D7
:10110000411C0AD0A84208D206490144204600F0FA
:101110001AFA10B167742674DAE784F8118026741D
:101120000020D6E78051010070B504000AD0206885
:10113000416821F008014160FFF772FA05464FF45B
:101140007A7608E0012070BDFFF76AFA401BB042D2
:1011500001D9032070BD206840680007F4D5002045
:1011600070BD10B5401EB0F1807F01D3012010BDCD
:101170004FF0E02460610F21601700F0B7FA002003
:10118000A06107202061002010BD70B5040004D0CC
:1011900094F84100002510B106E0012070BD84F8EC
:1011A0004050204600F024F8242084F841002068B4
:1011B000C16821F40051C160204600F031FA206876
:1011C000016921F4904101612068416921F02A01FF
:1011D00041612068C16841F40051C160656420200C
:1011E00084F8410084F842006563002070BD00006F
:1011F00030B585B0002400940194029403940068F3
:101200001449884224D11448816941F480418161A4
:10121000816901F480410491816941F00401816197
:1012200080690E4D00F0040004904FF400700090AF
:10123000022001900320039069462846FFF7EAF850
:101240002815CDE90004694628460294FFF7E2F824
:1012500005B030BD003801400010024000080140D8
:10126000FEE7000070B586B0002418480094019491
:1012700002940394816941F010018161816901F058
:1012800010010491816941F020018161816901F0BF
:1012900020010491816941F004018161806901228A
:1012A00000F004000A4E5503049029463046FFF72B
:1012B000B2F901200095CDE90104022003906946AE
:1012C0003046FFF7A7F806B070BD000000100240DE
:1012D000001001401CB500241948019417490094DE
:1012E0000160611E41604FF480718160FFF700FE74
:1012F00008B1FFF78CF88DF804408DF805408DF8A3
:101300000640012201A90E48FFF7B8FE08B1FFF719
:101310007EF801208DF800008DF8010020208DF866
:10132000020025208DF80300012269460448FFF7DA
:1013300043FE002801D0FFF76AF81CBD00280040DA
:10134000340000200C4810B50A4901604FF4E13127
:101350004160002181600C22C160C0E904128161FA
:10136000C161FFF712FF002803D0BDE81040FFF76E
:101370004EB810BD0038014048000020FEE7FEE7EF
:101380007047010901EB810100F00F0000EB410003
:10139000C0B27047002102E00A38C0B2491C0A28D6
:1013A000FAD2090740EA116070472DE9F04104467E
:1013B0000025C07B627BA37B42E0012A16D0032A72
:1013C00014D0052A12D0072A10D0082A0ED00A2AD3
:1013D0000CD00C2A0AD0042A10D0062A0ED0092AD2
:1013E0000CD00B2A0AD0022A0DD028E01F2B0CD3D8
:1013F0000C2A05D101221346401C20E01E2B04D3E9
:101400000123521C1BE01C2B02D203F1010316E046
:1014100011D183B29E0710D16426B3FBF6F706FB09
:10142000173636B94FF4C876B3FBF6F706FB173319
:101430001BB91D2303E01D2B01D1032201236D1CC9
:101440008D42BAD3D1B2E0736173DAB2A27300F005
:101450004FF82073BDE8F08170B50446FFF7E0F85F
:1014600005464FF47A7606E0FFF7DAF8401BB04203
:1014700001D9032070BD206840688006F4D520683B
:10148000416841F010014160002070BD70B5044614
:101490000068416821F010014160FFF7C1F805467E
:1014A0004FF47A7607E000BFFFF7BAF8401BB0426E
:1014B00001D9032070BD206840688006F4D5002063
:1014C00070BD0168086A496A89B241EA0040704704
:1014D000006881698AB2C1698BB2816989B28A4226
:1014E00003D0C06961F31F40704743EA0240704770
:1014F000F0B56424C1EBC1030927A500072603EB5F
:1015000001130329B3FBF7F100F5FA60114401441C
:101510000AD2401EB0FBF4F201EB9001B0FBF5F0F3
:10152000891A0844001D08E0B0FBF4F201EB9001B9
:10153000B0FBF5F0891A0844801CB0FBF6F106FBFD
:101540001100C0B2F0BD70B50D4606460024FFF78D
:1015500083FF48B93168280C08623168A8B2486234
:101560003046FFF793FF00B10124204670BD70B5EF
:101570000D4606460024FFF76FFF48B93168280C76
:1015800088613168A8B2C8613046FFF77FFF00B1BB
:101590000124204670BD7047FFF748B870B596B07B
:1015A00028216846FEF7F7FD14210AA8FEF7F3FD8F
:1015B00018210FA8FEF7EFFD01240520002500905B
:1015C000CDE902544FF48030019002260494CDE915
:1015D00007604FF4E01009906846FFF765FA08B11C
:1015E00072B6FEE70F20CDE90A064FF48060CDE920
:1015F0000C5002210AA80E95FFF77AF908B172B6CD
:10160000FEE74FF48070CDE90F400FA8FFF7FAF81E
:10161000002801D072B6FEE716B070BD704700001A
:1016200070B5044600680169E26821F44051114335
:1016300001612169A0680843616908432168CA689B
:1016400041F20C639A430243CA6020684169A2696F
:1016500021F44071114341611E492068884202D142
:10166000FFF7ECF901E0FFF7D9F900EBC00101EB5E
:101670000012606864218000B2FBF0F3B3FBF1F369
:101680006FF018067343B2FBF0F5B2FBF0F605EB12
:101690008305322303EB0515B5FBF1F5B6FBF1F637
:1016A00005F0F00505EB0615B2FBF0F6B2FBF0F025
:1016B000B0FBF1F06FF01802504306EB800003EB33
:1016C0000010B0FBF1F0216800F00F0028448860A2
:1016D00070BD000000380140FEE70000014A0249E9
:1016E00000F023B861170008300000200907090E38
:1016F000002804DB00F1E02080F80014704700F0BF
:101700000F0000F1E02080F8141D704702E008C8C7
:10171000121F08C1002AFAD170477047002001E06B
:1017200001C1121F002AFBD170472DE9F041164676
:101730000F460446002503E03946B047641C6D1C83
:1017400020780028F8D12846BDE8F081034A1168C6
:101750001368CB1A8342FBD37047000018000020A7
:1017600004490A685206FCD5024AC1B2121D116032
:101770007047000000380140F0B51B4885B0816912
:1017800041F010018161816901F0100104918169CA
:1017900041F004018161816901F0040104918169D2
:1017A00041F0040181618069002400F0040004908C
:1017B0002020012503268DE8710069460B48FEF7BD
:1017C00029FEE8038DE87100094F69463846FEF7A7
:1017D00021FE022003960095CDE901406946384676
:1017E000FEF718FE05B0F0BD0010024000100140E9
:1017F000000801402DE9F0410025DFF85880164C23
:101800002E46012708B1277001E0207820B1202161
:101810004046FEF7FBFE30B120214046FEF7F6FEC3
:1018200001280DD009E00A20FFF790FF2670202143
:101830004046FEF7EBFE00B90125207818B105E01F
:101840002770666002E06068401C60602846BDE862
:10185000F081000000100140240000202DE9F04735
:101860000025214E214C2F464FF001084FF400492E
:1018700010B184F8018001E0607850B149463046EB
:10188000FEF7C4FE60B101213046FEF7BFFE01281D
:1018900006D049463046FEF7B9FE012812D016E0C0
:1018A0000A20FFF753FF677049463046FEF7AEFE49
:1018B00000B9022501213046FEF7A8FE012806D115
:1018C000032504E001213046FEF7A0FE10B1607848
:1018D00020B106E084F80180A76002E0A068401C07
:1018E000A0602846BDE8F0870008014024000020E1
:1018F000F8B5174F0646002438887D8821464543B1
:10190000204603F071FF3889ADF8000011494FF00F
:101910008070086147000F61BDF800200E4802602A
:10192000BA100A6180230B614FF4007CC1F810C02B
:101930004FF4807EC1F810E00F6103E006600A6199
:101940000B61641CAC42F9D3C1F810C0F8BD0000B3
:1019500090000020001001400C0C01402DE9F04FD8
:1019600038492C260A46887192884FF4305A4FF431
:10197000285B41F6631E2B274FF02A0C4FF0F0082E
:1019800045F210594FF448754FF4A0744FF4F073BA
:1019900058B10C80A1F802804A4530D1A1F808A0C6
:1019A000A1F80AB03802888141E0A1F800804C809B
:1019B0004A4507D1A1F808A0A1F80AB04FF42C506D
:1019C000888105E072450E8105D14F81A1F80CC0D8
:1019D0000B804D8002E0A1F80AC08F81A2F5A640DD
:1019E000103803D0A2F5EE40963801D10C804B8020
:1019F000A2F5184006381FD10B804D801CE07245BF
:101A000011D0A2F5184006380DD00E81A1F80AC0F9
:101A1000A1F80C70A2F5A64010380BD0A2F5EE404C
:101A2000963807D008E00E81A1F80AC08F810D809A
:101A30004B80EFE70B804C80BDE8F04F002003F0B7
:101A400051BD000090000020F8B5144603F0CCFE14
:101A50000D480089ADF800000C484FF0807101611D
:101A600049000161BDF80030094A13608B10036121
:101A700080250561461506618715076101611460BF
:101A8000036105610661F8BD90000020001001406F
:101A90000C0C01402DE9F84FCF20ADF80000FF4CB1
:101AA0004FF0807525616E002661BDF80010DFF8EB
:101AB000F0A3CAF800106F1027614FF08008C4F837
:101AC00010804FF40079C4F81090002004F086F9DB
:101AD000C12004F083F9302004F080F9ED20ADF846
:101AE000000025612661BDF80010CAF800102761CA
:101AF000C4F81080C4F81090642004F06FF903203B
:101B000004F06CF9122004F069F9812004F066F900
:101B1000E820ADF8000025612661BDF80010CAF884
:101B200000102761C4F81080C4F81090852004F0DC
:101B300055F9102004F052F97A2004F04FF9CB2027
:101B4000ADF8000025612661BDF80010CAF800104C
:101B50002761C4F81080C4F81090392004F03EF9D1
:101B60002C2004F03BF9002004F038F9342004F074
:101B700035F9022004F032F9F720ADF800002561B4
:101B80002661BDF80010CAF800102761C4F8108063
:101B9000C4F81090202004F021F9EA20ADF80000EC
:101BA00025612661BDF80010CAF800102761C4F84D
:101BB0001080C4F81090002004F010F9002004F008
:101BC0000DF9C020ADF8000025612661BDF80010B8
:101BD000CAF800102761C4F81080C4F810901B20C8
:101BE00004F0FCF8C120ADF8000025612661BDF8C5
:101BF0000010CAF800102761C4F81080C4F81090D3
:101C0000012004F0EBF8C520ADF800002561266145
:101C1000BDF80010CAF800102761C4F81080C4F89D
:101C20001090302004F0DAF8302004F0D7F8C72004
:101C3000ADF8000025612661BDF80010CAF800105B
:101C40002761C4F81080C4F81090B72004F0C6F8DB
:101C50003620ADF8000025612661BDF80010CAF8F5
:101C600000102761C4F81080C4F81090482004F0D8
:101C7000B5F83A20ADF8000025612661BDF80010E6
:101C8000CAF800102761C4F81080C4F810905520DD
:101C900004F0A4F8B120ADF8000025612661BDF87C
:101CA0000010CAF800102761C4F81080C4F8109022
:101CB000002004F093F81A2004F090F8B620ADF854
:101CC000000025612661BDF80010CAF800102761E8
:101CD000C4F81080C4F810900A2004F07FF8A22005
:101CE00004F07CF8F220ADF8000025612661BDF813
:101CF0000010CAF800102761C4F81080C4F81090D2
:101D0000002004F06BF82620ADF800002561266164
:101D1000BDF80010CAF800102761C4F81080C4F89C
:101D20001090012004F05AF8E020ADF80000256181
:101D30002661BDF80010CAF800102761C4F81080B1
:101D4000C4F810900F2004F049F82A2004F046F857
:101D5000282004F043F8082004F040F80E2004F096
:101D60003DF8082004F03AF8542004F037F8A92090
:101D700004F034F8432004F031F80A2004F02EF87F
:101D80000F2004F02BF8002004F028F8002004F0C5
:101D900025F8002004F022F8002004F01FF8E120CC
:101DA000ADF8000025612661BDF80010CAF80010EA
:101DB0002761C4F81080C4F81090002004F00EF8D9
:101DC000152004F00BF8172004F008F8072004F0A1
:101DD00005F8112004F002F8062003F0FFFF2B2085
:101DE00003F0FCFF562003F0F9FF3C2003F0F6FF60
:101DF000052003F0F3FF102003F0F0FF0F2003F0A5
:101E0000EDFF3F2003F0EAFF3F2003F0E7FF0F2044
:101E100003F0E4FF2B20ADF8000025612661BDF83A
:101E20000010CAF800102761C4F81080C4F81090A0
:101E3000002003F0D3FF002003F0D0FF012003F0C7
:101E4000CDFF3F2003F0CAFF2A20ADF80000256136
:101E50002661BDF80010CAF800102761C4F8108090
:101E6000C4F81090002003F0B9FF002003F0B6FF83
:101E7000002003F0B3FFEF2003F0B0FF1120ADF816
:101E8000000025612661BDF80010CAF80010276126
:101E9000C4F81080C4F81090012003E00010014045
:101EA0000C0C0140FFF752FC2920ADF80000256121
:101EB0002661BDF80010CAF800102761C4F8108030
:101EC000C4F81090BDE8F88F2DE9F84FFF20ADF869
:101ED0000000FF4C4FF0807525616E002661BDF853
:101EE0000010DFF8F0A3CAF800106F1027614FF060
:101EF0008008C4F810804FF40079C4F8109003F003
:101F00006DFF982003F06AFF062003F067FFBC20F6
:101F1000ADF8000025612661BDF80010CAF8001078
:101F20002761C4F81080C4F81090012003F056FF18
:101F30000F2003F053FF612003F050FFFF2003F058
:101F40004DFF012003F04AFF012003F047FF0B2063
:101F500003F044FF102003F041FF372003F03EFF61
:101F6000632003F03BFFFF2003F038FFFF2003F066
:101F700035FF012003F032FF012003F02FFF002086
:101F800003F02CFF002003F029FFFF2003F026FFC1
:101F9000522003F023FF012003F020FF002003F074
:101FA0001DFF402003F01AFFBD20ADF800002561A1
:101FB0002661BDF80010CAF800102761C4F810802F
:101FC000C4F81090012003F009FF232003F006FF5E
:101FD000452003F003FF672003F000FF012003F01A
:101FE000FDFE232003F0FAFE452003F0F7FE6720F4
:101FF00003F0F4FEBE20ADF8000025612661BDF8B7
:102000000010CAF800102761C4F81080C4F81090BE
:10201000002003F0E3FE012003F0E0FEAB2003F01C
:10202000DDFE602003F0DAFE222003F0D7FE22203E
:1020300003F0D4FE222003F0D1FE222003F0CEFED6
:10204000222003F0CBFEC720ADF8000025612661F9
:10205000BDF80010CAF800102761C4F81080C4F859
:102060001090362003F0BAFEED20ADF80000256197
:102070002661BDF80010CAF800102761C4F810806E
:10208000C4F810907F2003F0A9FE0F2003F0A6FEF5
:10209000C020ADF8000025612661BDF80010CAF827
:1020A00000102761C4F81080C4F810900F2003F0CE
:1020B00095FE0B2003F092FE0A2003F08FFEFC2019
:1020C000ADF8000025612661BDF80010CAF80010C7
:1020D0002761C4F81080C4F81090082003F07EFE39
:1020E000DF20ADF8000025612661BDF80010CAF8B8
:1020F00000102761C4F81080C4F81090002003F08D
:102100006DFE002003F06AFE002003F067FE002051
:1021100003F064FE002003F061FE202003F05EFE69
:10212000F320ADF8000025612661BDF80010CAF863
:1021300000102761C4F81080C4F81090742003F0D8
:102140004DFEB420ADF8000025612661BDF80010F9
:10215000CAF800102761C4F81080C4F8109000205D
:1021600003F03CFE002003F039FE002003F036FEB1
:10217000F720ADF8000025612661BDF80010CAF80F
:1021800000102761C4F81080C4F81090822003F07A
:1021900025FEB120ADF8000025612661BDF80010D4
:1021A000CAF800102761C4F81080C4F8109000200D
:1021B00003F014FE132003F011FE132003F00EFEB3
:1021C000F220ADF8000025612661BDF80010CAF8C4
:1021D00000102761C4F81080C4F81090802003F02C
:1021E000FDFD042003F0FAFD402003F0F7FD282058
:1021F00003F0F4FDC120ADF8000025612661BDF8B3
:102200000010CAF800102761C4F81080C4F81090BC
:10221000172003F0E3FD882003F0E0FD882003F0A1
:10222000DDFD202003F0DAFDE020ADF8000025619F
:102230002661BDF80010CAF800102761C4F81080AC
:10224000C4F81090002003F0C9FD0A2003F0C6FD79
:10225000122003F0C3FD102003F0C0FD0E2003F098
:10226000BDFD202003F0BAFDCC2003F0B7FD072010
:1022700003F0B4FD062003F0B1FD0B2003F0AEFD2A
:102280000E2003F0ABFD0F2003F0A8FD0D2003F09E
:10229000A5FD152003F0A2FD102003F09FFD0020F6
:1022A00003F09CFDE120ADF8000025612661BDF83A
:1022B0000010CAF800102761C4F81080C4F810900C
:1022C000002003F08BFD0B2003F088FD132003E0BA
:1022D000001001400C0C014003F080FD0D2003F0C4
:1022E0007DFD0E2003F07AFD1B2003F077FD7120A9
:1022F00003F074FD062003F071FD062003F06EFD6F
:102300000A2003F06BFD0F2003F068FD0E2003F0A0
:1023100065FD0F2003F062FD152003F05FFD0C202A
:1023200003F05CFD002003F059FD2A20ADF8000009
:1023300025612661BDF80010CAF800102761C4F8B5
:102340001080C4F81090002003F048FD002003F036
:1023500045FD012003F042FDDF2003F03FFD2B206F
:10236000ADF8000025612661BDF80010CAF8001024
:102370002761C4F81080C4F81090002003F02EFDEF
:10238000002003F02BFD032003F028FD1F2003F0A5
:1023900025FD3A20ADF8000025612661BDF800104A
:1023A000CAF800102761C4F81080C4F810905520B6
:1023B00003F014FD3620ADF8000025612661BDF85C
:1023C0000010CAF800102761C4F81080C4F81090FB
:1023D000002003F003FD1120ADF800002561266107
:1023E000BDF80010CAF800102761C4F81080C4F8C6
:1023F00010907820FFF7AAF92920ADF80000256198
:102400002661BDF80010CAF800102761C4F81080DA
:10241000C4F810901420FFF799F92C20ADF80000B3
:1024200025612661BDF80010CAF800102761C4F8C4
:102430001080C4F81090BDE8F88F00002DE9F84F27
:10244000ED20ADF80000FF4E4FF080743461630062
:102450003361BDF80000FC4D28609F1037614FF0DC
:102460008009C6F810904FF40078C6F8108001205B
:1024700003F0B4FCFE2003F0B1FCEE20ADF8000048
:1024800034613361BDF8000028603761C6F81090F0
:10249000C6F81080DE2003F0A1FC212003F09EFC92
:1024A000F120ADF8000034613361BDF80000286010
:1024B0003761C6F81090C6F81080012003F08EFC3A
:1024C000DF20ADF8000034613361BDF80000286002
:1024D0003761C6F81090C6F81080102003F07EFC1B
:1024E0004FF0C40AADF800A034613361BDF80000BC
:1024F00028603761C6F81090C6F810808F2003F06E
:102500006DFC4FF0C60BADF800B034613361BDF81F
:10251000000028603761C6F81090C6F810800020CF
:1025200003F05CFCE22003F059FCE22003F056FCCF
:10253000E22003F053FCBF20ADF8000034613361AA
:10254000BDF8000028603761C6F81090C6F810800A
:10255000AA2003F043FCB020ADF8000034613361E1
:10256000BDF8000028603761C6F81090C6F81080EA
:102570000D2003F033FC002003F030FC0D2003F0AD
:102580002DFC002003F02AFC112003F027FC002082
:1025900003F024FC192003F021FC002003F01EFCB2
:1025A000212003F01BFC002003F018FC2D2003F079
:1025B00015FC002003F012FC3D2003F00FFC00206E
:1025C00003F00CFC5D2003F009FC002003F006FC86
:1025D0005D2003F003FC002003F000FCB120ADF807
:1025E000000034613361BDF8000028603761C6F82F
:1025F0001090C6F81080802003F0F0FB002003F05C
:10260000EDFB8B2003F0EAFB002003F0E7FB9620B4
:1026100003F0E4FB002003F0E1FBB220ADF8000082
:1026200034613361BDF8000028603761C6F810904E
:10263000C6F81080002003F0D1FB002003F0CEFB91
:10264000022003F0CBFB002003F0C8FB032003F0C3
:10265000C5FB002003F0C2FBB320ADF800003461DD
:102660003361BDF8000028603761C6F81090C6F8E5
:102670001080002003F0B2FB002003F0AFFB00202D
:1026800003F0ACFB002003F0A9FB002003F0A6FB45
:10269000002003F0A3FB002003F0A0FB002003F0C8
:1026A0009DFB002003F09AFB002003F097FB002025
:1026B00003F094FB002003F091FB002003F08EFB5D
:1026C000002003F08BFB002003F088FB002003F0C8
:1026D00085FB002003F082FB002003F07FFB00203D
:1026E00003F07CFB002003F079FB002003F076FB75
:1026F000002003F073FB002003F070FB002003F0C8
:102700006DFBB420ADF8000034613361BDF800000A
:1027100028603761C6F81090C6F810808B2003F04F
:102720005DFB002003F05AFB962003F057FB0020CE
:1027300003F054FBA12003F051FB002003F04EFBFB
:10274000B520ADF8000034613361BDF800002860A9
:102750003761C6F81090C6F81080022003F03EFBE7
:10276000002003F03BFB032003F038FB002003F0C4
:1027700035FB042003F032FB002003F02FFBB620D2
:10278000ADF8000034613361BDF8000028603761A6
:10279000C6F81090C6F81080002003F01FFB002040
:1027A00003F01CFBB720ADF8000034613361BDF8C5
:1027B000000028603761C6F81090C6F8108000202D
:1027C00003F00CFB002003F009FB3F2003F006FBA5
:1027D000002003F003FB5E2003F000FB002003F069
:1027E000FDFA642003F0FAFA002003F0F7FA8C20D7
:1027F00003F0F4FA002003F0F1FAAC2003F0EEFA53
:10280000002003F0EBFADC2003F0E8FA002003F0EC
:10281000E5FA702003F0E2FA002003F0DFFA9020DE
:1028200003F0DCFA002003F0D9FAEB2003F0D6FA2B
:10283000002003F0D3FADC2003F0D0FA002003F0EC
:10284000CDFA03E0001001400C0C0140B820ADF8B7
:10285000000034613361BDF8000028603761C6F8BC
:102860001090C6F81080002003F0B8FA002003F0A2
:10287000B5FA002003F0B2FA002003F0AFFA00200E
:1028800003F0ACFA002003F0A9FA002003F0A6FA46
:10289000002003F0A3FABA20ADF8000034613361E0
:1028A000BDF8000028603761C6F81090C6F81080A7
:1028B000242003F093FA002003F090FA002003F0A4
:1028C0008DFA002003F08AFAC120ADF800003461CF
:1028D0003361BDF8000028603761C6F81090C6F873
:1028E0001080202003F07AFA002003F077FA5420B9
:1028F00003F074FA002003F071FAFF2003F06EFA7F
:10290000002003F06BFAC220ADF80000346133619F
:10291000BDF8000028603761C6F81090C6F8108036
:102920000A2003F05BFA002003F058FA042003F0B9
:1029300055FA002003F052FAC320ADF800003461CC
:102940003361BDF8000028603761C6F81090C6F802
:1029500010803C2003F042FA002003F03FFA3A20B6
:1029600003F03CFA002003F039FA392003F036FA7C
:10297000002003F033FA372003F030FA002003F090
:102980002DFA3C2003F02AFA002003F027FA362023
:1029900003F024FA002003F021FA322003F01EFA9B
:1029A000002003F01BFA2F2003F018FA002003F098
:1029B00015FA2C2003F012FA002003F00FFA292058
:1029C00003F00CFA002003F009FA262003F006FABF
:1029D000002003F003FA242003F000FA002003F0A3
:1029E000FDF9242003F0FAF9002003F0F7F9232081
:1029F00003F0F4F9002003F0F1F93C2003F0EEF9C4
:102A0000002003F0EBF9362003F0E8F9002003F092
:102A1000E5F9322003F0E2F9002003F0DFF92F207E
:102A200003F0DCF9002003F0D9F92C2003F0D6F9EB
:102A3000002003F0D3F9292003F0D0F9002003F09F
:102A4000CDF9262003F0CAF9002003F0C7F92420AD
:102A500003F0C4F9002003F0C1F9242003F0BEF90B
:102A6000002003F0BBF9232003F0B8F9002003F0A5
:102A7000B5F9ADF800A034613361BDF800002860FD
:102A80003761C6F81090C6F81080622003F0A6F9EE
:102A9000002003F0A3F9052003F0A0F9002003F0C3
:102AA0009DF9842003F09AF9002003F097F9F020B3
:102AB00003F094F9002003F091F9182003F08EF947
:102AC000002003F08BF9A42003F088F9002003F024
:102AD00085F9182003F082F9002003F07FF95020D7
:102AE00003F07CF9002003F079F90C2003F076F96B
:102AF000002003F073F9172003F070F9002003F0B1
:102B00006DF9952003F06AF9002003F067F9F320CE
:102B100003F064F9002003F061F9E62003F05EF9A8
:102B2000002003F05BF9C520ADF80000346133618B
:102B3000BDF8000028603761C6F81090C6F8108014
:102B4000322003F04BF9002003F048F9442003F051
:102B500045F9002003F042F9652003F03FF9002019
:102B600003F03CF9762003F039F9002003F036F940
:102B7000882003F033F9002003F030F9ADF800B0FD
:102B800034613361BDF8000028603761C6F81090E9
:102B9000C6F81080202003F021F9002003F01EF970
:102BA000172003F01BF9002003F018F9012003F0AF
:102BB00015F9002003F012F9C720ADF800003461C8
:102BC0003361BDF8000028603761C6F81090C6F880
:102BD0001080002003F002F9002003F0FFF800202D
:102BE00003F0FCF8002003F0F9F8C820ADF800006D
:102BF00034613361BDF8000028603761C6F8109079
:102C0000C6F81080002003F0E9F8002003F0E6F891
:102C1000002003F0E3F8002003F0E0F8C920ADF84D
:102C2000000034613361BDF8000028603761C6F8E8
:102C30001090C6F81080002003F0D0F8002003F0B8
:102C4000CDF8002003F0CAF8002003F0C7F80020F8
:102C500003F0C4F8002003F0C1F8002003F0BEF830
:102C6000002003F0BBF8002003F0B8F8002003F0C8
:102C7000B5F8002003F0B2F8002003F0AFF8002010
:102C800003F0ACF8002003F0A9F8002003F0A6F848
:102C9000002003F0A3F8E020ADF8000034613361B8
:102CA000BDF8000028604FF4000AC6F810A0CB461B
:102CB000C6F810904746C6F81080162003F08EF82C
:102CC000002003F08BF81C2003F088F8002003F0AC
:102CD00085F8212003F082F8002003F07FF83620E9
:102CE00003F07CF8002003F079F8462003F076F832
:102CF000002003F073F8522003F070F8002003F076
:102D00006DF8642003F06AF8002003F067F87A2079
:102D100003F064F8002003F061F88B2003F05EF804
:102D2000002003F05BF8992003F058F8002003F02E
:102D300055F8A82003F052F8002003F04FF8B9200E
:102D400003F04CF8002003F049F8C42003F046F8E3
:102D5000002003F043F8CA2003F040F8002003F0FD
:102D60003DF8D22003F03AF8002003F037F8D920DC
:102D700003F034F8002003F031F8E02003F02EF8DF
:102D8000002003F02BF8F32003F028F8002003F0D4
:102D900025F8E120ADF8000034613361BDF8000092
:102DA0002860C6F810A0C6F810903761162003F00E
:102DB00015F8002003F012F81C2003F00FF8002093
:102DC00003F00CF8222003F009F8002003F006F8C5
:102DD000362003F003F8002003F000F8452002F04D
:102DE000FDFF002002F0FAFF522002F0F7FF002062
:102DF00002F0F4FF642002F0F1FF002002F0EEFF89
:102E00007A2002F0EBFF002002F0E8FF8B2002F0B6
:102E1000E5FF002002F0E2FF992002F0DFFF002032
:102E200002F0DCFFA82002F0D9FF002002F0D6FF5C
:102E3000B92002F0D3FF002002F0D0FFC42002F03E
:102E4000CDFF002002F0CAFFCA2002F0C7FF002019
:102E500002F0C4FFD22002F0C1FF002002F0BEFF4A
:102E6000D82002F0BBFF002002F0B8FFE02002F003
:102E7000B5FF002002F0B2FFF32002F0AFFF002008
:102E800002F0ACFFE220ADF8000034613361BDF820
:102E900000002860C6F810A0C6F810903761052021
:102EA00002F09CFF002002F099FF0B2002F096FF39
:102EB000002002F093FF1B2002F090FF002002F0A0
:102EC0008DFF342002F08AFF002002F087FF4420AB
:102ED00002F084FF002002F081FF4F2002F07EFF0D
:102EE000002002F07BFF612002F078FF002002F05A
:102EF00075FF792002F072FF002002F06FFF88203A
:102F000002F06CFF002002F069FF972002F066FFDC
:102F1000002002F063FFA62002F060FF002002F014
:102F20005DFFB72002F05AFF002002F057FFC220D9
:102F300002F054FF002002F051FFC72002F04EFFC4
:102F4000002002F04BFFD12002F048FF002002F0E9
:102F500045FFD62002F042FF002002F03FFFDD20B7
:102F600002F03CFF002002F039FFF32002F036FFB0
:102F7000002002F033FFE320ADF80000346133613C
:102F8000BDF800002860C6F810A0C6F810903761A0
:102F9000052002F023FF002002F020FF0A2002F0AB
:102FA0001DFF002002F01AFF1C2002F017FF002076
:102FB00002F014FF332002F011FF002002F00EFF98
:102FC000442002F00BFF002002F008FF502002F026
:102FD00005FF002002F002FF622002F0FFFE002049
:102FE00002F0FCFE782002F0F9FE002002F0F6FE6E
:102FF000882002F0F3FE002002F0F0FE972002F09D
:10300000EDFE002002F0EAFEA62002F0E7FE00201E
:1030100002F0E4FEB72002F0E1FE002002F0DEFE46
:10302000C22002F0DBFE002002F0D8FEC72002F032
:10303000D5FE002002F0D2FED12002F0CFFE00200B
:1030400002F0CCFED52002F0C9FE002002F0C6FE40
:10305000DD2002F0C3FE002002F0C0FEF32002F0EB
:10306000BDFE002002F0BAFEE420ADF8000034619D
:103070003361BDF800002860C6F810A0C6F81090B3
:103080003761012002F0AAFE002002F0A7FE012015
:1030900002F0A4FE002002F0A1FE022002F09EFE3B
:1030A000002002F09BFE2A2002F098FE002002F091
:1030B00095FE3C2002F092FE002002F08FFE4B2095
:1030C00002F08CFE002002F089FE5D2002F086FEF8
:1030D000002002F083FE742002F080FE002002F047
:1030E0007DFE842002F07AFE002002F077FE93201D
:1030F00002F074FE002002F071FEA22002F06EFECB
:10310000002002F06BFEB32002F068FE002002F007
:1031100065FEBE2002F062FE002002F05FFEC420C9
:1031200002F05CFE002002F059FECD2002F056FEB7
:10313000002002F053FED32002F050FE002002F0E7
:103140004DFEDD2002F04AFE002002F047FEF32093
:1031500002F044FE002002F041FEE520ADF8000040
:1031600034613361BDF800002860C6F810A0C6F8CD
:1031700010903761002002F031FE002002F02EFE98
:10318000002002F02BFE002002F028FE022002F0B8
:1031900025FE002002F022FE292002F01FFE002062
:1031A00002F01CFE3C2002F019FE002002F016FE88
:1031B0004B2002F013FE002002F010FE5D2002F012
:1031C0000DFE002002F00AFE742002F007FE00202F
:1031D00002F004FE842002F001FE002002F0FEFD59
:1031E000932002F0FBFD002002F0F8FDA22002F087
:1031F000F5FD002002F0F2FDB32002F0EFFD00200B
:1032000002F0ECFDBE2002F0E9FD002002F0E6FD38
:10321000C42002F0E3FD002002F0E0FDCD2002F02A
:10322000DDFD002002F0DAFDD32002F0D7FD002002
:1032300002F0D4FDDC2002F0D1FD002002F0CEFD32
:10324000F32002F0CBFD002002F0C8FDE620ADF82F
:10325000000034619A463361BDF80010A946296028
:10326000651035615F46C6F810B0C6F810801120B1
:1032700002F0B4FD002002F0B1FD342002F0AEFDFA
:10328000002002F0ABFD562002F0A8FD002002F065
:10329000A5FD762002F0A2FD002002F09FFD772020
:1032A00002F09CFD002002F099FD662002F096FDE0
:1032B000002002F093FD882002F090FD002002F033
:1032C0008DFD992002F08AFD002002F087FDBB20D1
:1032D00002F084FD002002F081FD992002F07EFDC5
:1032E000002002F07BFD662002F078FD002002F055
:1032F00075FD552002F072FD002002F06FFD552093
:1033000002F06CFD002002F069FD452002F066FD30
:10331000002002F063FD432002F060FD002002F077
:103320005DFD442002F05AFD002002F057FDE72029
:10333000ADF800003461C6F810A0BDF80010C9F85F
:10334000001035613761C6F81080322002F046FD6A
:10335000002002F043FD552002F040FD002002F065
:103360003DFD762002F03AFD002002F037FD662098
:1033700002F034FD002002F031FD672002F02EFD46
:10338000002002F02BFD672002F028FD002002F053
:1033900025FD872002F022FD002002F01FFD99206C
:1033A00002F01CFD002002F019FDBB2002F016FD0A
:1033B000002002F013FD992002F010FD002002F021
:1033C0000DFD772002F00AFD002002F007FD4420E9
:1033D00002F004FD002002F001FD562002F0FEFC88
:1033E000002002F0FBFC232002F0F8FC002002F099
:1033F000F5FC332002F0F2FC002002F0EFFC452047
:1034000002F0ECFC002002F0E9FCE820ADF800003E
:103410003461C6F810A0BDF80010C9F8001035617D
:103420003761C6F81080002002F0D8FC002002F0BE
:10343000D5FC992002F0D2FC002002F0CFFC8720BE
:1034400002F0CCFC002002F0C9FC882002F0C6FC8F
:10345000002002F0C3FC772002F0C0FC002002F044
:10346000BDFC662002F0BAFC002002F0B7FC882008
:1034700002F0B4FC002002F0B1FCAA2002F0AEFC85
:10348000002002F0ABFCBB2002F0A8FC002002F000
:10349000A5FC992002F0A2FC002002F09FFC66200F
:1034A00002F09CFC002002F099FC552002F096FCF2
:1034B000002002F093FC552002F090FC002002F066
:1034C0008DFC442002F08AFC002002F087FC44209E
:1034D00002F084FC002002F081FC552002F07EFC0A
:1034E000002002F07BFCE920ADF800003461C6F852
:1034F00010A0BDF80010C9F8001035613761C6F89A
:103500001080AA2002F06AFC002002F067FC002074
:1035100002F064FC002002F061FC0020ADF8000025
:103520003461C6F810A0BDF80010C9F8001035616C
:103530003761C6F81080AA2002F050FCCF20ADF809
:1035400000003461C6F810A0BDF80010C9F80010E2
:1035500035613761C6F81080002002F03FFC002082
:1035600002F03CFC002002F039FC002002F036FCA6
:10357000002002F033FC002002F030FC002002F0BA
:103580002DFC002002F02AFC002002F027FC002085
:1035900002F024FC002002F021FC002002F01EFCBE
:1035A000002002F01BFC002002F018FC002002F0BA
:1035B00015FC002002F012FC002002F00FFCF020AD
:1035C000ADF800003461C6F810A0BDF80010C9F8CD
:1035D000001035613761C6F81080002002F0FEFB54
:1035E000502002F0FBFB002002F0F8FB002002F06C
:1035F000F5FB002002F0F2FBF320ADF8000034618F
:10360000C6F810A0BDF80010C9F800103561376188
:10361000C6F81080002002F0E1FBF920ADF80000B0
:103620003461C6F810A0BDF80010C9F8001035616B
:103630003761C6F81080062002F0D0FB102002F09F
:10364000CDFB292002F0CAFB002002F0C7FB3A2084
:10365000ADF800003461C6F810A0BDF80010C9F83C
:10366000001035613761C6F81080552002F0B6FBB6
:103670001120ADF800003461C6F810A0BDF80010AC
:10368000C9F8001035613761C6F810806420FEF774
:103690005DF82920ADF800003461C6F810A0BDF82F
:1036A0000010C9F8001035613761C6F81080352068
:1036B000ADF800003461C6F810A0BDF80010C9F8DC
:1036C000001035613761C6F81080002002F086FBDB
:1036D0005120ADF800003461C6F810A0BDF800100C
:1036E000C9F8001035613761C6F81080FF2002F07C
:1036F00075FB5320ADF800003461C6F810A0BDF88A
:103700000010C9F8001035613761C6F810802C2010
:1037100002F064FB5520ADF800003461C6F810A03B
:10372000BDF80010C9F8001035613761C6F8108087
:10373000822002F053FB2C20ADF800003461C6F863
:1037400010A0BDF80010C9F8001035613761C6F847
:103750001080BDE8F88F00002DE9F84F4FF4704459
:103760005521204602F04EFB651CAA21284602F096
:1037700049FBA61C5221304602F044FBE71C0821FD
:10378000384602F03FFB4FF204080121404602F0A8
:1037900039FB0D214FF4304002F034FB0D214BF288
:1037A000010002F02FFB0D214BF2020002F02AFB78
:1037B0004FF436493421484602F024FB34214BF2C1
:1037C000016002F01FFB34214BF2026002F01AFB91
:1037D0004FF4314A0D21504602F014FB4BF2011B0D
:1037E0000D21584602F00EFB0D214BF2021002F0A3
:1037F00009FB34214FF4374002F004FB34214BF233
:10380000017002F0FFFA34214BF2027002F0FAFA72
:1038100000214FF4324002F0F5FA00214BF2012072
:1038200002F0F0FA00214BF2022002F0EBFA242120
:103830004FF4384002F0E6FA24214BF6010002F082
:10384000E1FA24214BF6020002F0DCFA01214FF4E8
:103850003F4002F0D7FA0F214FF4334002F0D2FA82
:103860000F214BF2013002F0CDFA0F214BF2023062
:1038700002F0C8FA34214FF4394002F0C3FA34217F
:103880004BF6011002F0BEFA34214BF6021002F0A2
:10389000B9FA08214FF4354002F0B4FA08214BF28E
:1038A000015002F0AFFA08214BF2025002F0AAFADE
:1038B00003214FF4424002F0A5FA24214FF43A408C
:1038C00002F0A0FA24214BF6012002F09BFA2421F9
:1038D0004BF6022002F096FA00214FF43C4002F031
:1038E00091FA78214BF6014002F08CFA00214BF658
:1038F000024002F087FA00214FF43D4002F082FAC4
:1039000078214BF6015002F07DFA00214BF602506F
:1039100002F078FA00214FF43E4002F073FA64217D
:103920004BF6016002F06EFA00214FF4514002F0B4
:1039300069FA33214DF2011002F064FA00214DF2D0
:10394000021002F05FFA34214DF2031002F05AFA2D
:1039500000214DF2041002F055FA3A214DF2051003
:1039600002F050FA00214DF2061002F04BFA4A2103
:103970004DF2071002F046FA00214DF2081002F055
:1039800041FA5C214DF2091002F03CFA00214DF29F
:103990000A1002F037FA81214DF20B1002F032FAD0
:1039A00000214DF20C1002F02DFAA6214DF20D105F
:1039B00002F028FA00214DF20E1002F023FAE52160
:1039C0004DF20F1002F01EFA01214DF2101002F01C
:1039D00019FA13214DF2111002F014FA01214DF2DF
:1039E000121002F00FFA54214DF2131002F00AFAED
:1039F00001214DF2141002F005FA82214DF215104A
:103A000002F000FA01214DF2161002F0FBF9CA2172
:103A10004DF2171002F0F6F902214DF2181002F0E3
:103A2000F1F900214DF2191002F0ECF902214DF2EA
:103A30001A1002F0E7F901214DF21B1002F0E2F931
:103A400002214DF21C1002F0DDF934214DF21D105F
:103A500002F0D8F902214DF21E1002F0D3F96721CD
:103A60004DF21F1002F0CEF902214DF2201002F0AB
:103A7000C9F984214DF2211002F0C4F902214DF25E
:103A8000221002F0BFF9A4214DF2231002F0BAF97E
:103A900002214DF2241002F0B5F9B7214DF22510A4
:103AA00002F0B0F902214DF2261002F0ABF9CF215D
:103AB0004DF2271002F0A6F902214DF2281002F073
:103AC000A1F9DE214DF2291002F09CF902214DF2FC
:103AD0002A1002F097F9F2214DF22B1002F092F920
:103AE00002214DF22C1002F08DF9FE214DF22D1025
:103AF00002F088F903214DF22E1002F083F9102113
:103B00004DF22F1002F07EF903214DF2301002F039
:103B100079F933214DF2311002F074F903214DF29D
:103B2000321002F06FF96D214DF2331002F06AF994
:103B300000214FF4524002F065F933214DF201208B
:103B400002F060F900214DF2022002F05BF934210D
:103B50004DF2032002F056F900214DF2042002F04C
:103B600051F93A214DF2052002F04CF900214DF2B5
:103B7000062002F047F94A214DF2072002F042F9EF
:103B800000214DF2082002F03DF95C214DF20920A0
:103B900002F038F900214DF20A2002F033F98121B8
:103BA0004DF20B2002F02EF900214DF20C2002F014
:103BB00029F9A6214DF20D2002F024F900214DF241
:103BC0000E2002F01FF9E5214DF20F2002F01AF944
:103BD00001214DF2102002F015F913214DF21120B0
:103BE00002F010F901214DF2122002F00BF95421DC
:103BF0004DF2132002F006F901214DF2142002F0DB
:103C000001F982214DF2152002F0FCF801214DF25C
:103C1000162002F0F7F8CA214DF2172002F0F2F850
:103C200002214DF2182002F0EDF800214DF219208A
:103C300002F0E8F802214DF21A2002F0E3F8012127
:103C40004DF21B2002F0DEF802214DF21C2002F0A2
:103C5000D9F834214DF21D2002F0D4F802214DF2A2
:103C60001E2002F0CFF867214DF21F2002F0CAF8A3
:103C700002214DF2202002F0C5F884214DF22120CE
:103C800002F0C0F802214DF2222002F0BBF8A4217C
:103C90004DF2232002F0B6F802214DF2242002F06A
:103CA000B1F8B7214DF2252002F0ACF802214DF217
:103CB000262002F0A7F8CF214DF2272002F0A2F82B
:103CC00002214DF2282002F09DF8DE214DF229203C
:103CD00002F098F802214DF22A2002F093F8F22126
:103CE0004DF22B2002F08EF802214DF22C2002F032
:103CF00089F8FE214DF22D2002F084F803214DF2C7
:103D00002E2002F07FF810214DF22F2002F07AF8D9
:103D100003214DF2302002F075F833214DF23120AD
:103D200002F070F803214DF2322002F06BF86D21A1
:103D30004DF2332002F066F800214FF4534002F0B8
:103D400061F833214DF2013002F05CF800214DF2B0
:103D5000023002F057F834214DF2033002F052F8ED
:103D600000214DF2043002F04DF83A214DF20530B9
:103D700002F048F800214DF2063002F043F84A21E3
:103D80004DF2073002F03EF800214DF2083002F00B
:103D900039F85C214DF2093002F034F800214DF27F
:103DA0000A3002F02FF881214DF20B3002F02AF890
:103DB00000214DF20C3002F025F8A6214DF20D3015
:103DC00002F020F800214DF20E3002F01BF8E52140
:103DD0004DF20F3002F016F801214DF2103002F0D2
:103DE00011F813214DF2113002F00CF801214DF2BF
:103DF000123002F007F854214DF2133002F002F8AD
:103E000001214DF2143001F0FDFF82214DF21530F9
:103E100001F0F8FF01214DF2163001F0F3FFCA2145
:103E20004DF2173001F0EEFF02214DF2183001F093
:103E3000E9FF00214DF2193001F0E4FF02214DF2BB
:103E40001A3001F0DFFF01214DF21B3001F0DAFFE3
:103E500002214DF21C3001F0D5FF34214DF21D300E
:103E600001F0D0FF02214DF21E3001F0CBFF67219F
:103E70004DF21F3001F0C6FF02214DF2203001F05B
:103E8000C1FF84214DF2213001F0BCFF02214DF22F
:103E9000223001F0B7FFA4214DF2233001F0B2FF30
:103EA00002214DF2243001F0ADFFB7214DF2253053
:103EB00001F0A8FF02214DF2263001F0A3FFCF212F
:103EC0004DF2273001F09EFF02214DF2283001F023
:103ED00099FFDE214DF2293001F094FF02214DF2CD
:103EE0002A3001F08FFFF2214DF22B3001F08AFFD2
:103EF00002214DF22C3001F085FFFE214DF22D30D4
:103F000001F080FF03214DF22E3001F07BFF1021E4
:103F10004DF22F3001F076FF03214DF2303001F0E9
:103F200071FF33214DF2313001F06CFF03214DF26E
:103F3000323001F067FF6D214DF2333001F062FF46
:103F400000214FF4544001F05DFF33214DF2014058
:103F500001F058FF00214DF2024001F053FF3421DF
:103F60004DF2034001F04EFF00214DF2044001F0FC
:103F700049FF3A214DF2054001F044FF00214DF286
:103F8000064001F03FFF4A214DF2074001F03AFFA1
:103F900000214DF2084001F035FF5C214DF209404F
:103FA00001F030FF00214DF20A4001F02BFF81218A
:103FB0004DF20B4001F026FF00214DF20C4001F0C4
:103FC00021FFA6214DF20D4001F01CFF00214DF212
:103FD0000E4001F017FFE5214DF20F4001F012FFF6
:103FE00001214DF2104001F00DFF13214DF211405F
:103FF00001F008FF01214DF2124001F003FF5421AE
:104000004DF2134001F0FEFE01214DF2144001F08B
:10401000F9FE82214DF2154001F0F4FE01214DF22E
:10402000164001F0EFFECA214DF2174001F0EAFE02
:1040300002214DF2184001F0E5FE00214DF2194039
:1040400001F0E0FE02214DF21A4001F0DBFE0121F9
:104050004DF21B4001F0D6FE02214DF21C4001F052
:10406000D1FE34214DF21D4001F0CCFE02214DF273
:104070001E4001F0C7FE67214DF21F4001F0C2FE55
:1040800002214DF2204001F0BDFE84214DF221407D
:1040900001F0B8FE02214DF2224001F0B3FEA4214E
:1040A0004DF2234001F0AEFE02214DF2244001F01A
:1040B000A9FEB7214DF2254001F0A4FE02214DF2E8
:1040C000264001F09FFECF214DF2274001F09AFEDD
:1040D00002214DF2284001F095FEDE214DF22940EB
:1040E00001F090FE02214DF22A4001F08BFEF221F8
:1040F0004DF22B4001F086FE02214DF22C4001F0E2
:1041000081FEFE214DF22D4001F07CFE03214DF297
:104110002E4001F077FE10214DF22F4001F072FE8B
:1041200003214DF2304001F06DFE33214DF231405C
:1041300001F068FE03214DF2324001F063FE6D2173
:104140004DF2334001F05EFE00214FF4554001F086
:1041500059FE33214DF2015001F054FE00214DF281
:10416000025001F04FFE34214DF2035001F04AFE9F
:1041700000214DF2045001F045FE3A214DF2055068
:1041800001F040FE00214DF2065001F03BFE4A21B5
:104190004DF2075001F036FE00214DF2085001F0BB
:1041A00031FE5C214DF2095001F02CFE00214DF250
:1041B0000A5001F027FE81214DF20B5001F022FE42
:1041C00000214DF20C5001F01DFEA6214DF20D50C4
:1041D00001F018FE00214DF20E5001F013FEE52112
:1041E0004DF20F5001F00EFE01214DF2105001F082
:1041F00009FE13214DF2115001F004FE01214DF290
:10420000125001F0FFFD54214DF2135001F0FAFD60
:1042100001214DF2145001F0F5FD82214DF21550AF
:1042200001F0F0FD01214DF2165001F0EBFDCA2125
:104230004DF2175001F0E6FD02214DF2185001F049
:10424000E1FD00214DF2195001F0DCFD02214DF29B
:104250001A5001F0D7FD01214DF21B5001F0D2FDA3
:1042600002214DF21C5001F0CDFD34214DF21D50C4
:1042700001F0C8FD02214DF21E5001F0C3FD67217F
:104280004DF21F5001F0BEFD02214DF2205001F011
:10429000B9FD84214DF2215001F0B4FD02214DF20F
:1042A000225001F0AFFDA4214DF2235001F0AAFDF0
:1042B00002214DF2245001F0A5FDB7214DF2255009
:1042C00001F0A0FD02214DF2265001F09BFDCF210F
:1042D0004DF2275001F096FD02214DF2285001F0D9
:1042E00091FDDE214DF2295001F08CFD02214DF2AD
:1042F0002A5001F087FDF2214DF22B5001F082FD92
:1043000002214DF22C5001F07DFDFE214DF22D5089
:1043100001F078FD03214DF22E5001F073FD1021C4
:104320004DF22F5001F06EFD03214DF2305001F09F
:1043300069FD33214DF2315001F064FD03214DF24E
:10434000325001F05FFD6D214DF2335001F05AFD06
:1043500000214FF4564001F055FD33214DF201602C
:1043600001F050FD00214DF2026001F04BFD3421BF
:104370004DF2036001F046FD00214DF2046001F0B2
:1043800041FD3A214DF2056001F03CFD00214DF266
:10439000066001F037FD4A214DF2076001F032FD61
:1043A00000214DF2086001F02DFD5C214DF2096005
:1043B00001F028FD00214DF20A6001F023FD81216A
:1043C0004DF20B6001F01EFD00214DF20C6001F07A
:1043D00019FDA6214DF20D6001F014FD00214DF2F2
:1043E0000E6001F00FFDE5214DF20F6001F00AFDB6
:1043F00001214DF2106001F005FD13214DF2116015
:1044000001F000FD01214DF2126001F0FBFC54218E
:104410004DF2136001F0F6FC01214DF2146001F041
:10442000F1FC82214DF2156001F0ECFC01214DF20E
:10443000166001F0E7FCCA214DF2176001F0E2FCC2
:1044400002214DF2186001F0DDFC00214DF21960EF
:1044500001F0D8FC02214DF21A6001F0D3FC0121D9
:104460004DF21B6001F0CEFC02214DF21C6001F008
:10447000C9FC34214DF21D6001F0C4FC02214DF253
:104480001E6001F0BFFC67214DF21F6001F0BAFC15
:1044900002214DF2206001F0B5FC84214DF2216033
:1044A00001F0B0FC02214DF2226001F0ABFCA4212E
:1044B0004DF2236001F0A6FC02214DF2246001F0D0
:1044C000A1FCB7214DF2256001F09CFC02214DF2C8
:1044D000266001F097FCCF214DF2276001F092FC9D
:1044E00002214DF2286001F08DFCDE214DF22960A1
:1044F00001F088FC02214DF22A6001F083FCF221D8
:104500004DF22B6001F07EFC02214DF22C6001F097
:1045100079FCFE214DF22D6001F074FC03214DF277
:104520002E6001F06FFC10214DF22F6001F06AFC4B
:1045300003214DF2306001F065FC33214DF2316012
:1045400001F060FC03214DF2326001F05BFC6D2153
:104550004DF2336001F056FC5521204601F052FC2B
:10456000AA21284601F04EFC5221304601F04AFCB7
:104570000821384601F046FC0021404601F042FC8B
:10458000CC21504601F03EFC0021584601F03AFC97
:104590000521484601F036FC70214FF4374001F008
:1045A00031FC70214BF2017001F02CFC01214FF421
:1045B000384001F027FC03214BF6010001F022FCFA
:1045C00003214BF6020001F01DFC03214BF6030012
:1045D00001F018FC02214FF43C4001F013FC0021D3
:1045E0004BF6014001F00EFC00214BF6024001F0B9
:1045F00009FCD0214FF4494001F004FC02214CF6A3
:10460000011001F0FFFB50214CF6021001F0FAFB03
:1046100050214CF6031001F0F5FB50214CF604102C
:1046200001F0F0FB00214FF4545001F0EBFB552159
:104630004FF4685001F0E6FB4FF48850ADF80000ED
:10464000144C2D0625616E002661BDF80000124F46
:1046500038604FF40008C4F810804FF08009C4F8A7
:1046600010904FF4007AC4F810A00120FDF76EF806
:104670004FF42450ADF8000025612661BDF800001C
:104680003860C4F81080C4F81090C4F810A0BDE8D9
:10469000F88F0000001001400C0C01402DE9F84F8C
:1046A000E220ADF80000AC4C4FF0807525616E0043
:1046B0002661BDF80010DFF8A482C8F800106F1062
:1046C00027614FF08009C4F810904FF4007AC4F8C5
:1046D00010A01D2001F082FB022001F07FFB0420CE
:1046E00001F07CFB0120FDF731F84FF0E00BADF855
:1046F00000B025612661BDF80010C8F800102761E0
:10470000C4F81090C4F810A0012001F067FB0A2043
:10471000FDF71CF8ADF800B025612661BDF800106A
:10472000C8F800102761C4F81090C4F810A0032046
:1047300001F054FB0C20FDF709F80120ADF8000052
:1047400025612661BDF80010C8F800102761C4F883
:104750001090C4F810A00A20FCF7F8FFE620ADF88E
:10476000000025612661BDF80010C8F8001027611F
:10477000C4F81090C4F810A02F2001F02FFBFF20E8
:1047800001F02CFBFF2001F029FBB020ADF8000068
:1047900025612661BDF80010C8F800102761C4F833
:1047A0001090C4F810A0202001F018FB002001F0A8
:1047B00015FB032001F012FB40F21F3001F00EFB4D
:1047C000012001F00BFB40F2DF1001F007FB00209D
:1047D00001F004FBB420ADF8000025612661BDF8AE
:1047E0000010C8F800102761C4F81090C4F810A099
:1047F000042001F0F3FA40F21F4001F0EFFA00202C
:1048000001F0ECFA2E2001F0E9FA002001F0E6FABE
:10481000002001F0E3FA002001F0E0FA002001F0AE
:10482000DDFAB620ADF8000025612661BDF8001064
:10483000C8F800102761C4F81090C4F810A0022036
:1048400001F0CCFA4FF4037001F0C8FA002001F037
:10485000C5FA172001F0C2FA152001F0BFFA0020B6
:1048600001F0BCFA002001F0B9FAF020ADF8000028
:1048700025612661BDF80010C8F800102761C4F852
:104880001090C4F810A0032001F0A8FA2920ADF878
:10489000000025612661BDF80010C8F800102761EE
:1048A000C4F81090C4F810A0D020ADF80000256125
:1048B0002661BDF80010C8F800102761C4F81090F8
:1048C000C4F810A0002001F089FABE20ADF8000065
:1048D00025612661BDF80010C8F800102761C4F8F2
:1048E0001090C4F810A0052001F078FAFE2001F025
:1048F00075FA012001F072FA002001F06FFA002031
:1049000001F06CFA002001F069FAB820ADF800005F
:1049100025612661BDF80010C8F800102761C4F8B1
:104920001090C4F810A0032001F058FA012001F003
:1049300055FABA20ADF8000025612661BDF80010D7
:10494000C8F800102761C4F81090C4F810A0BDE8A2
:10495000F84F012001F042BA001001400C0C014058
:104960002DE9F84F1120ADF80000CB4C4FF08075C9
:1049700025616E002661BDF80010DFF820A3CAF89B
:1049800000106F1027614FF08008C4F810804FF4BA
:104990000079C4F810900120FCF7D8FE3620ADF85D
:1049A000000025612661BDF80010CAF800102761DB
:1049B000C4F81080C4F81090002001F00FFA3A20DB
:1049C000ADF8000025612661BDF80010CAF800109E
:1049D0002761C4F81080C4F81090052001F0FEF99A
:1049E000B220ADF8000025612661BDF80010CAF8BC
:1049F00000102761C4F81080C4F810900C2001F05A
:104A0000EDF90C2001F0EAF9002001F0E7F933207C
:104A100001F0E4F9332001F0E1F9B720ADF800002E
:104A200025612661BDF80010CAF800102761C4F89E
:104A30001080C4F81090352001F0D0F9BB20ADF8FB
:104A4000000025612661BDF80010CAF8001027613A
:104A5000C4F81080C4F81090322001F0BFF9C020D3
:104A6000ADF8000025612661BDF80010CAF80010FD
:104A70002761C4F81080C4F810900C2001F0AEF942
:104A8000C220ADF8000025612661BDF80010CAF80B
:104A900000102761C4F81080C4F81090012001F0C4
:104AA0009DF9C320ADF8000025612661BDF8001016
:104AB000CAF800102761C4F81080C4F810901020C4
:104AC00001F08CF9C420ADF8000025612661BDF825
:104AD0000010CAF800102761C4F81080C4F81090C4
:104AE000202001F07BF9C620ADF800002561266189
:104AF000BDF80010CAF800102761C4F81080C4F88F
:104B000010900F2001F06AF9D020ADF80000256167
:104B10002661BDF80010CAF800102761C4F81080A3
:104B2000C4F81090A42001F059F9A12001F056F921
:104B3000E020ADF8000025612661BDF80010CAF83C
:104B400000102761C4F81080C4F81090D02001F044
:104B500045F9002001F042F9022001F03FF9072059
:104B600001F03CF90A2001F039F9282001F036F96A
:104B7000322001F033F9442001F030F9422001F0F5
:104B80002DF9062001F02AF90E2001F027F9122054
:104B900001F024F9142001F021F9172001F01EF989
:104BA000E120ADF8000025612661BDF80010CAF8CB
:104BB00000102761C4F81080C4F81090D02001F0D4
:104BC0000DF9002001F00AF9022001F007F9072091
:104BD00001F004F90A2001F001F9282001F0FEF8A3
:104BE000312001F0FBF8542001F0F8F8472001F0E3
:104BF000F5F80E2001F0F2F81C2001F0EFF8172074
:104C000001F0ECF81B2001F0E9F81E2001F0E6F8B5
:104C10002A20ADF8000025612661BDF80010CAF811
:104C200000102761C4F81080C4F81090002001F033
:104C3000D5F8002001F0D2F8002001F0CFF8EF20E5
:104C400001F0CCF82B20ADF8000025612661BDF8FD
:104C50000010CAF800102761C4F81080C4F8109042
:104C6000002001F0BBF8002001F0B8F8012001F0AD
:104C7000B5F83F2001F0B2F82920ADF80000256119
:104C80002661BDF80010CAF800102761C4F8108032
:104C9000C4F81090BDE8F88F001001400C0C0140E2
:104CA0002DE9F84F1120ADF80000E24C4FF080756F
:104CB00025616E002661BDF80010DFF87C83C8F81E
:104CC00000106F1027614FF08009C4F810904FF466
:104CD000007AC4F810A07820FCF738FD3620ADF833
:104CE000000025612661BDF80010C8F8001027619A
:104CF000C4F81090C4F810A0482001F06FF83A20D2
:104D0000ADF8000025612661BDF80010C8F800105C
:104D10002761C4F81090C4F810A0552001F05EF887
:104D2000F023ADF8003025612661BDF80010C8F809
:104D300000102761C4F81090C4F810A0C32001F03F
:104D40004DF8ADF8003025612661BDF80010C8F8B7
:104D500000102761C4F81090C4F810A0962001F04C
:104D60003DF8B420ADF8000025612661BDF80010C3
:104D7000C8F800102761C4F81090C4F810A00120F2
:104D800001F02CF8B620ADF8000025612661BDF8D1
:104D90000010C8F800102761C4F81090C4F810A0E3
:104DA0000A2001F01BF8A22001F018F8B720ADF896
:104DB000000025612661BDF80010C8F800102761C9
:104DC000C4F81090C4F810A0C62001F007F8B9206C
:104DD000ADF8000025612661BDF80010C8F800108C
:104DE0002761C4F81090C4F810A0022000F0F6FF6C
:104DF000E02000F0F3FFC020ADF80000256126613F
:104E0000BDF80010C8F800102761C4F81090C4F86D
:104E100010A0802000F0E2FF162000F0DFFFC1208C
:104E2000ADF8000025612661BDF80010C8F800103B
:104E30002761C4F81090C4F810A0192000F0CEFF2C
:104E4000C220ADF8000025612661BDF80010C8F849
:104E500000102761C4F81090C4F810A0A72000F03B
:104E6000BDFFC520ADF8000025612661BDF800102A
:104E7000C8F800102761C4F81090C4F810A01620DC
:104E800000F0ACFFE820ADF8000025612661BDF818
:104E90000010C8F800102761C4F81090C4F810A0E2
:104EA000402000F09BFF8A2000F098FF002000F0D7
:104EB00095FF002000F092FF292000F08FFF1920BD
:104EC00000F08CFFA52000F089FF332000F086FF62
:104ED000E020ADF8000025612661BDF80010C8F89B
:104EE00000102761C4F81090C4F810A0F02000F062
:104EF00075FF072000F072FF0D2000F06FFF042007
:104F000000F06CFF052000F069FF142000F066FF40
:104F1000362000F063FF542000F060FF4C2000F0CA
:104F20005DFF382000F05AFF132000F057FF1420D7
:104F300000F054FF2E2000F051FF342000F04EFF0F
:104F4000E120ADF8000025612661BDF80010C8F829
:104F500000102761C4F81090C4F810A0F02000F0F1
:104F60003DFF102000F03AFF142000F037FF0E2024
:104F700000F034FF0C2000F031FF082000F02EFF7D
:104F8000352000F02BFF442000F028FF4C2000F0DB
:104F900025FF262000F022FF102000F01FFF122026
:104FA00000F01CFF2C2000F019FF322000F016FF4B
:104FB000ADF8003025612661BDF80010C8F800107A
:104FC0002761C4F81090C4F810A03C2000F006FF40
:104FD000ADF8003025612661BDF80010C8F800105A
:104FE0002761C4F81090C4F810A0692000F0F6FE04
:104FF0007820FCF7ABFB2120ADF80000256126618D
:10500000BDF80010C8F800102761C4F81090C4F86B
:1050100010A02920ADF8000025612661BDF8001020
:10502000C8F800102761C4F81090C4F810A0BDE8BB
:10503000F88F0000001001400C0C01402DE9F04FEA
:10504000FC4885B0816941F010018161816901F0FE
:1050500010010491816941F010018161816901F0C1
:1050600010010491816941F010018161816901F0B1
:1050700010010491816941F010018161816901F0A1
:1050800010010491816941F010018161816901F091
:1050900010010491816941F008018161816901F089
:1050A00008010491816941F001018161806900F08A
:1050B00001000490E048416821F0E06141F0007196
:1050C000416001250015CDE900050327DB4CCDE942
:1050D000025769462046FBF79DF94FF4007BCDE966
:1050E00000B5CDE902575E4669462046FBF792F9C6
:1050F0008027694620460097FBF78CF94FF040095E
:1051000069462046CDF80090FBF784F94FF4807A89
:1051100069462046CDF800A0FBF77CF94FF6FF78F2
:10512000CDE900856946C648FBF774F92761C4F8E4
:1051300010902661C4F810A0C14D0C35C5F8008050
:10514000C048401EFDD2D320ADF810004FF0807053
:1051500020614FF00079C4F81090BDF8100028606D
:105160004FF4000020612761C4F810B000F086F908
:10517000B54FB88000F082F9B88000F07FF94FF6A3
:10518000FF7A0AEA0020B88000F078F9B98808436D
:10519000A0F51341B88041397DD00420ADF810004E
:1051A00080052061C4F81090BDF8100028604FF40D
:1051B0000008C4F81080802020615F46C4F810B059
:1051C00000F05CF9A04EB08000F058F9B08000F01B
:1051D00055F90AEA0020B08000F050F9B188084380
:1051E000A0F50541B08052397ED0A0F5EE41893955
:1051F000D2D0D420ADF810004FF080702061400074
:105200002061BDF81010A9462960C4F810808025DF
:105210002561276100F032F9B08000F02FF9B080ED
:1052200000F02CF90AEA0020B08000F027F9B188DC
:105230000843A0F5A641B0801039ADD0D320ADF819
:1052400010006F042761AE042661BDF81010C9F884
:10525000001028042061802020618000206100F07F
:105260000DF9794DA88000F009F9A88000F006F941
:105270000AEA0020A88000F001F9A9880843A0F5F7
:10528000EE41A880963906D055214FF4704000F0C9
:10529000B9FDAA2100E093E04FF2010000F0B2FD59
:1052A00052214FF2020000F0ADFD08214FF2030041
:1052B00000F0A8FD01214FF2040000F0A3FD4FF41F
:1052C0004540ADF81000B8462761B3462661BDF8E9
:1052D0001010C9F80010B610266180272761B51399
:1052E000256100F0CBF800E089E057490AEA002088
:1052F00088804CF20150ADF81000C4F81080C4F85A
:1053000010B0BDF81010C9F80010266127612561A2
:1053100000F0B4F84C49898808434B49888005203F
:10532000FCF714FA48488188A1F5AA40103847D004
:10533000D320ADF81000E8032061D846C4F810B0BF
:10534000BDF81010C9F8001040102061BB4627615D
:10535000256100F093F83C4EB08000F08FF8B080EB
:1053600000F08CF80AEA00205746B08000F086F87A
:10537000B1880843A0F51841B080063920D0A1209B
:10538000ADF81000E8032061C4F81080BDF81010DB
:10539000C9F8001040102061C4F810B0256100F079
:1053A0006DF8B08000F06AF807EA0020B08000F0E5
:1053B00065F8B1880843A0F5AE41B080613924D0CA
:1053C00021488088A0F5EE4189391BD0A0F5134112
:1053D00041393BD0A0F5A64110393AD0A0F5EE41B5
:1053E000963939D0A0F5AA41103938D0A0F5184126
:1053F000063937D0A0F5C851633909D00DE047F21E
:105400008970B080FFF7ACFA07E041F66310B08016
:10541000FFF744F9642000F07BFC0020FCF79EFAC3
:105420004FF4806020615046FCF762FA05B0BDE899
:10543000F08F000000100240000001400010014009
:10544000000C0140FFFF010090000020FCF722FB50
:10545000E3E7FCF7F3FFE0E7FFF722FCDDE7FEF709
:105460007BF9DAE7FCF730FDD7E70246012000E0E0
:105470005043491EC9B2FBD270470000F0B585B059
:105480004FF6FF7501AA002001240326009582E84B
:105490005100124F69463846FAF7BCFF1048210206
:1054A000016149040161C91001610221491EFDD257
:1054B0000A4908310968ADF8101040210161C9009E
:1054C0000161CDE90054CDE9024669463846FAF754
:1054D000A1FFBDF8100005B0F0BD0000000C0140B8
:1054E000001001402DE9F84FBC4C00252146A2795F
:1054F000898841F66316012A01D01AB10CE0B14245
:1055000002D109E0B14207D1082805D2DFE800F056
:10551000161812140C19100E082812D2DFE800F029
:10552000110406080A0C0E1080250AE0402508E048
:10553000C02506E0202504E0602502E0A02500E06B
:10554000E025362045F21058414500D10002A1F572
:105550001342413A07D0A1F5EE42893A03D0A1F5B2
:10556000EE42963A01D145F00805294600F04AFC82
:10557000B4F804C0B4450AD0A8062088618802D5D2
:10558000884202D303E0884201D9218060808025CF
:105590009348A9046F04934A8B1046154FF0000EF0
:1055A0004FF4807BC4457DD1A1466489ADF80040AD
:1055B00007610161BDF800C0C2F800C00361056168
:1055C0000661DC46C0F810B00161F246C2F800E0A6
:1055D00003610561066104F10108ADF8008007610F
:1055E0000161BDF80080C2F80080036105610661B9
:1055F000C0F810C00161C2F800A003610561066136
:1056000004F10208ADF8008007610161BDF8008077
:10561000C2F80080036105610661C0F810C0016135
:10562000B9F80080A8F1010B4FEA2B28C2F80080DE
:10563000036105610661E41CADF80040076101618A
:10564000BDF800401460036105610661C0F810C038
:1056500001610BF0FF041460036105610661B9F894
:105660000C40ADF8004007610161BDF80080C2F850
:105670000080036105610661C0F810C00161C2F8D5
:1056800000A003610561066104F10108ADF8008026
:1056900007610161BDF80080C2F800800361056107
:1056A000066100E033E0C0F810C00161C2F800A05C
:1056B00003610561066104F10208ADF8008007612D
:1056C0000161BDF80080C2F80080036105610661D8
:1056D000C0F810C00161B9F80280A8F101094FEAD1
:1056E0002928C2F80080036105610661E41CADF859
:1056F000004007610161BDF800401460036105616D
:105700000661C0F810C0016109F0FF015FE0B4F864
:105710000AC0ADF800C0BA4607610161BDF800706B
:1057200017600361056106615F46C0F810B0016152
:10573000F446C2F800E0036105610661C0F810B0EC
:105740000161C2F800E0036105610661C0F810B0B4
:105750000161B4F80080A8F101094FEA2928C2F8D4
:1057600000800361056106610761016109F0FF08BE
:10577000C2F80080036105610661B4F80C80ADF8E1
:105780000080C0F810A00161BDF80080C2F8008060
:1057900003610561066107610161C2F800C0036130
:1057A0000561066107610161C2F800C0036105611E
:1057B0000661076101616488641E4FEA242CC2F807
:1057C00000C003610561066107610161E1B211601A
:1057D000036105610661BDE8F88F000090000020BC
:1057E000001001400C0C01402DE9F34F81B0A34B98
:1057F00001981D469A884FEA102C00F0FF0E4FEAE0
:10580000112B01F0FF0A9E48AF896E89A2F5C8549A
:105810004FF000714FF080094FF48078633C44D022
:10582000A2F5AA43103BADF800604FF08072026110
:105830000161BDF80030934A13604FF40003036127
:105840004C46C0F810904FF400750561C0F8108008
:105850000161C2F800C00361C0F8109005617DD0FD
:10586000C0F810800161C2F800E0036104610561C5
:10587000ADF800704E1006610161BDF80060166061
:10588000036104610561C0F8108001615E46166025
:10589000036104610561C0F810800161C2F800A0D5
:1058A000036104610561BDE8FE8F744A734B927910
:1058B0001D88002A70D0ADF800604FF08072026140
:1058C0000161BDF800306F4A13604FF400030361BB
:1058D000C0F8109054150461C0F810800161C2F83E
:1058E00000C00361C0F810900461C0F8108001612D
:1058F000C2F800E00361C0F810900461C0F81080A5
:1059000001616D1E2E1216600361C0F810900461D3
:10591000C0F810800161EDB215600361C0F810900D
:105920000461564DADF800704FF080720261016164
:10593000BDF80030534A13604FF4000303614C4636
:10594000C0F8109056150661C0F810800161C2F8C9
:1059500000B00361C0F81090066100E05AE0C0F8A2
:1059600010800161C2F800A00361C0F810900661C8
:10597000C0F8108001616D886D1E2F1217600361E1
:1059800004610661C0F810800161E9B21160036131
:105990000461066187E7FFE7019AADF80060AA1A83
:1059A000521E95B24FF0807202610161BDF8003065
:1059B000344A13604FF4000303614C46C0F8109062
:1059C0004FF4007CC0F810C0C0F8108001610026C0
:1059D00016600361C0F81090C0F810C0C0F81080C5
:1059E000016116600361C0F81090C0F810C0C0F8E3
:1059F000108001612E0A166003610461C0F810C0B6
:105A0000C0F810800161EDB2156003610461C0F857
:105A100010C086E7761CADF800604FF08076066116
:105A20000161BDF800601660036104610561C0F8A2
:105A300010800161C2F800E0036104610561ADF806
:105A400000704FF0807606610161BDF8006016605D
:105A5000036104610561C0F810800161C2F800B003
:105A60000361046105617F1CADF800704FF0807622
:105A700006610161BDF8006009E7000090000020A8
:105A8000001001400C0C01402DE9FF4F83B09846F7
:105A90000C468A461846102B14D0182816D0202BF6
:105AA00052D12B4800EBC2164FF00009DFF8A4B02A
:105AB0004046FAF7EDFB284A284BFAF777FBCDE989
:105AC000000137E0264800EB4216EDE7244902EBDF
:105AD000C200C03101EBC006E6E700BF16F809704E
